:020000040000FA
:100000008316051005108312851C3428051D2D2824
:10001000851D3B2804287D30A000FA30A100000097
:1000200000000000000000000000000000000000D0
:100030000000000000000000A10B0F28A00B0D28FD
:1000400008008430A200FA30A30000000000000085
:10005000A30B2528A20B23280800851D04280514BE
:100060002120051021202D28851D042805140B2092
:0C00700005100B203428851D0510042805
:04007C000034003418
:02400E00703F01
:00000001FF
